:100000000C942A000C943C000C943C000C943C0092
:100010000C943C000C943C000C943C000C943C0070
:100020000C943C000C943C000C943C000C943C0060
:100030000C943C000C943E000C943C000C943C004E
:100040000C943C000C943C000C943C000C943C0040
:100050000C943C0011241FBECFE5D8E0DEBFCDBF1D
:1000600020E0A0E6B0E001C01D92A136B207E1F7A2
:100070000E94AF000C94ED000C9400001F920F92B0
:100080000FB60F9211248F938CB1809360008F91E3
:100090000F900FBE0F901F90189580E487B986E8E7
:1000A00086B910BE08958770806487B9369A349BEC
:1000B000FECF349A84B195B1089580E280B911B829
:1000C00084E086BF089584EA86BF06B607FEFDCFAA
:1000D00081B1887F089584E986BF089583B984E853
:1000E00086BF06B607FEFDCF81B1887F089584ECF8
:1000F00086BF06B607FEFDCF83B1089584E886BFAC
:1001000006B607FEFDCF83B10895880F82B985EC4E
:1001100086BF089510BC83E389B988E18AB986E86F
:1001200080BD08955D9BFECF8CB908955F9BFECF87
:100130008CB108950F931F93CF938C01C0E0F80109
:10014000EC0FF11D8081882321F00E949200CF5F87
:10015000F6CFCF911F910F910895579A0895CF939D
:10016000DF931F92CDB7DEB7B89AC09866E081E002
:100170000E944D000E945D000E948A000E94AD0016
:10018000789480E00E945300182F99830E946300A6
:1001900080E20E946E009981892F0E946E00812F5B
:1001A0000E946E000E946B0080916000813311F408
:1001B000C09A05C080916000803329F4C0980E94E5
:1001C0009200109260002FEF80E792E02150804073
:0E01D0009040E1F700C00000D4CFF894FFCFBC
:00000001FF
