:100000000C942A000C9447000C9447000C94470071
:100010000C9447000C9447000C9447000C94470044
:100020000C9447000C9447000C9447000C94470034
:100030000C9447000C9473000C9447000C944700F8
:100040000C9447000C9447000C9447000C94490012
:100050000C94470011241FBECFE5D8E0DEBFCDBF12
:1000600010E0A0E6B0E0E6E8F4E002C005900D92F2
:10007000AE39B107D9F720E0AEE9B0E001C01D927A
:10008000A33AB207E1F70E94C9010C9441020C9413
:1000900000001F920F920FB60F9211248F9381B11F
:1000A000887F803829F0803AB1F08036A1F411C001
:1000B0008091A000811107C083B18093A20081E0EC
:1000C0008093A00008C083B18093A10081E0809359
:1000D0009F001092A00085EC86BF8F910F900FBEFD
:1000E0000F901F9018951F920F920FB60F92112428
:1000F0008F938CB180939E008F910F900FBE0F90C5
:100100001F90189580E280B911B884E086BF0895E9
:1001100084EA86BF06B607FEFDCF81B1887F0895C9
:1001200084E986BF089583B984E886BF06B607FED2
:10013000FDCF81B1887F089584EC86BF06B607FEA7
:10014000FDCF83B1089584E886BF06B607FEFDCFD4
:1001500083B10895880F82B985EC86BF089510BCDD
:1001600083E389B988E18AB986E880BD08955D9BFB
:10017000FECF8CB908955F9BFECF8CB108950F938D
:100180001F93CF938C01C0E0F801EC0FF11D80812B
:10019000882321F00E94B700CF5FF6CFCF911F9147
:1001A0000F910895579A089598B39F7098BB98B38C
:1001B000807F982B98BBDB9A8FEC97E00197F1F743
:1001C00000C00000DB988FEC97E00197F1F700C0CA
:1001D00000000895CF93C82FD998DA980E94D400D0
:1001E00088B38F7088BB28B330E1C39FC00111244E
:1001F000822B88BBDB9A8FEC97E00197F1F700C068
:100200000000DB988FE99FE00197F1F700C0000044
:10021000CF910895CF93C82FD99ADA980E94D4002D
:1002200088B38F7088BB28B330E1C39FC00111240D
:10023000822B88BBDB9A8FEC97E00197F1F700C027
:100240000000DB988FEC97E00197F1F700C0000009
:10025000CF91089587B3806F87BBD19AD29AD39AF2
:10026000D998DA98DB988FE39CE90197F1F700C001
:10027000000080E30E94D4008FE097E20197F1F73D
:1002800000C0000080E30E94D4008BE291E001975F
:10029000F1F700C0000080E20E94D4008FEC97E0EC
:1002A0000197F1F700C0000088E20E94EA008CE0AC
:1002B0000E94EA0086E00E94EA0081E00E94EA00D3
:1002C0008FE99FE00197F1F700C0000008950F93B8
:1002D0001F93CF938C01C0E0F801EC0FF11D8081DA
:1002E000882321F00E940A01CF5FF6CFCF911F91A2
:1002F0000F91089581E00E94EA008FE99FE0019745
:10030000F1F700C000000895811102C080E801C02B
:1003100080EC860F0C94EA001F93CF93DF9300D0FC
:1003200000D01F92CDB7DEB7009759F480E30F904D
:100330000F900F900F900F90DF91CF911F910C9421
:100340000A0110E02AE030E0E1E0F0E0EC0FFD1FF0
:10035000E10FF11DB9010E942D02805D8083CB0168
:100360001F5F009789F7112359F01150E1E0F0E089
:10037000EC0FFD1FE10FF11D80810E940A01F3CFF8
:100380000F900F900F900F900F90DF91CF911F91D2
:1003900008958A988B98929A939A80E10E94AA0075
:1003A0000E94AF000E94D2000E942A01789480E649
:1003B00090E00E946701829B03C0839918C00CC023
:1003C00081E30E94B7008FE59AEE0197F1F700C034
:1003D0000000829BFECFF1CF80E30E94B7008FE543
:1003E0009AEE0197F1F700C00000839BFECF809149
:1003F0009F008130B9F48091A200C091A100D0E0AB
:10040000D82B60E081E00E9484018BE690E00E949E
:10041000670160E081E00E948401CE010E948C01AE
:1004200010929F0080919E00813339F460E080E05B
:100430000E9484018CE790E00BC080919E00803385
:1004400009F0B9CF60E080E00E9484018DE890E07F
:100450000E94670110929E00AECFAA1BBB1B51E108
:1004600007C0AA1FBB1FA617B70710F0A61BB70B24
:10047000881F991F5A95A9F780959095BC01CD01C9
:060480000895F894FFCF7F
:100486004144432056616C75653A002020202020A7
:100496002020202020202020202020004C45442001
:1004A6004F4E20202020202020202020004C454494
:0E04B600204F4646202020202020202020001D
:00000001FF
